{
  "contractName": "Faucet",
  "abi": [
    {
      "inputs": [],
      "name": "numMount",
      "outputs": [
        {
          "internalType": "uint32",
          "name": "",
          "type": "uint32"
        }
      ],
      "stateMutability": "view",
      "type": "function",
      "constant": true
    },
    {
      "inputs": [],
      "name": "numOfFunders",
      "outputs": [
        {
          "internalType": "uint256",
          "name": "",
          "type": "uint256"
        }
      ],
      "stateMutability": "view",
      "type": "function",
      "constant": true
    },
    {
      "inputs": [],
      "name": "owner",
      "outputs": [
        {
          "internalType": "address",
          "name": "",
          "type": "address"
        }
      ],
      "stateMutability": "view",
      "type": "function",
      "constant": true
    },
    {
      "inputs": [],
      "name": "test3",
      "outputs": [
        {
          "internalType": "uint256",
          "name": "",
          "type": "uint256"
        }
      ],
      "stateMutability": "pure",
      "type": "function",
      "constant": true
    },
    {
      "stateMutability": "payable",
      "type": "receive",
      "payable": true
    },
    {
      "inputs": [],
      "name": "emitLog",
      "outputs": [
        {
          "internalType": "bytes32",
          "name": "",
          "type": "bytes32"
        }
      ],
      "stateMutability": "pure",
      "type": "function",
      "constant": true
    },
    {
      "inputs": [],
      "name": "test1",
      "outputs": [],
      "stateMutability": "nonpayable",
      "type": "function"
    },
    {
      "inputs": [],
      "name": "test2",
      "outputs": [],
      "stateMutability": "nonpayable",
      "type": "function"
    },
    {
      "inputs": [],
      "name": "addFunds",
      "outputs": [],
      "stateMutability": "payable",
      "type": "function",
      "payable": true
    },
    {
      "inputs": [
        {
          "internalType": "uint256",
          "name": "withdrawAmount",
          "type": "uint256"
        }
      ],
      "name": "withdraw",
      "outputs": [],
      "stateMutability": "nonpayable",
      "type": "function"
    },
    {
      "inputs": [],
      "name": "getAllFunders",
      "outputs": [
        {
          "internalType": "address[]",
          "name": "",
          "type": "address[]"
        }
      ],
      "stateMutability": "view",
      "type": "function",
      "constant": true
    },
    {
      "inputs": [
        {
          "internalType": "uint8",
          "name": "index",
          "type": "uint8"
        }
      ],
      "name": "getFunderAtIndex",
      "outputs": [
        {
          "internalType": "address",
          "name": "",
          "type": "address"
        }
      ],
      "stateMutability": "view",
      "type": "function",
      "constant": true
    }
  ],
  "bytecode": "0x608060405234801561001057600080fd5b50336000806101000a81548173ffffffffffffffffffffffffffffffffffffffff021916908373ffffffffffffffffffffffffffffffffffffffff1602179055506103e8600060146101000a81548163ffffffff021916908363ffffffff160217905550610b92806100836000396000f3fe6080604052600436106100a05760003560e01c80636fbbb55d116100645780636fbbb55d1461016b5780638da5cb5b14610196578063a26759cb146101c1578063af7f2c9b146101cb578063bda4c1ae146101f6578063f42c13bf14610221576100a7565b80630a8e8e01146100ac5780630a93cf33146100d75780632e1a7d4d1461011457806366e41cb71461013d5780636b59084d14610154576100a7565b366100a757005b600080fd5b3480156100b857600080fd5b506100c161024c565b6040516100ce9190610935565b60405180910390f35b3480156100e357600080fd5b506100fe60048036038101906100f9919061076d565b610255565b60405161010b919061089d565b60405180910390f35b34801561012057600080fd5b5061013b60048036038101906101369190610744565b610295565b005b34801561014957600080fd5b5061015261032c565b005b34801561016057600080fd5b506101696103bc565b005b34801561017757600080fd5b5061018061044c565b60405161018d91906108b8565b60405180910390f35b3480156101a257600080fd5b506101ab610592565b6040516101b8919061089d565b60405180910390f35b6101c96105b6565b005b3480156101d757600080fd5b506101e06106d6565b6040516101ed9190610935565b60405180910390f35b34801561020257600080fd5b5061020b6106dc565b6040516102189190610950565b60405180910390f35b34801561022d57600080fd5b506102366106f2565b60405161024391906108da565b60405180910390f35b60006064905090565b6000600360008360ff16815260200190815260200160002060009054906101000a900473ffffffffffffffffffffffffffffffffffffffff169050919050565b8067016345785d8a00008111156102e1576040517f08c379a00000000000000000000000000000000000000000000000000000000081526004016102d8906108f5565b60405180910390fd5b3373ffffffffffffffffffffffffffffffffffffffff166108fc839081150290604051600060405180830381858888f19350505050158015610327573d6000803e3d6000fd5b505050565b60008054906101000a900473ffffffffffffffffffffffffffffffffffffffff1673ffffffffffffffffffffffffffffffffffffffff163373ffffffffffffffffffffffffffffffffffffffff16146103ba576040517f08c379a00000000000000000000000000000000000000000000000000000000081526004016103b190610915565b60405180910390fd5b565b60008054906101000a900473ffffffffffffffffffffffffffffffffffffffff1673ffffffffffffffffffffffffffffffffffffffff163373ffffffffffffffffffffffffffffffffffffffff161461044a576040517f08c379a000000000000000000000000000000000000000000000000000000000815260040161044190610915565b60405180910390fd5b565b6060600060015467ffffffffffffffff811115610492577f4e487b7100000000000000000000000000000000000000000000000000000000600052604160045260246000fd5b6040519080825280602002602001820160405280156104c05781602001602082028036833780820191505090505b50905060005b60015481101561058a576003600082815260200190815260200160002060009054906101000a900473ffffffffffffffffffffffffffffffffffffffff1682828151811061053d577f4e487b7100000000000000000000000000000000000000000000000000000000600052603260045260246000fd5b602002602001019073ffffffffffffffffffffffffffffffffffffffff16908173ffffffffffffffffffffffffffffffffffffffff1681525050808061058290610a18565b9150506104c6565b508091505090565b60008054906101000a900473ffffffffffffffffffffffffffffffffffffffff1681565b6000339050600260008273ffffffffffffffffffffffffffffffffffffffff1673ffffffffffffffffffffffffffffffffffffffff16815260200190815260200160002060009054906101000a900460ff166106d35760006001600081548092919061062190610a18565b9190505590506001600260008473ffffffffffffffffffffffffffffffffffffffff1673ffffffffffffffffffffffffffffffffffffffff16815260200190815260200160002060006101000a81548160ff021916908315150217905550816003600083815260200190815260200160002060006101000a81548173ffffffffffffffffffffffffffffffffffffffff021916908373ffffffffffffffffffffffffffffffffffffffff160217905550505b50565b60015481565b600060149054906101000a900463ffffffff1681565b60007f48656c6c6f20576f726c64000000000000000000000000000000000000000000905090565b60008135905061072981610b2e565b92915050565b60008135905061073e81610b45565b92915050565b60006020828403121561075657600080fd5b60006107648482850161071a565b91505092915050565b60006020828403121561077f57600080fd5b600061078d8482850161072f565b91505092915050565b60006107a283836107ae565b60208301905092915050565b6107b7816109b5565b82525050565b6107c6816109b5565b82525050565b60006107d78261097b565b6107e18185610993565b93506107ec8361096b565b8060005b8381101561081d5781516108048882610796565b975061080f83610986565b9250506001810190506107f0565b5085935050505092915050565b610833816109c7565b82525050565b60006108466023836109a4565b915061085182610a90565b604082019050919050565b60006108696023836109a4565b915061087482610adf565b604082019050919050565b610888816109f1565b82525050565b610897816109fb565b82525050565b60006020820190506108b260008301846107bd565b92915050565b600060208201905081810360008301526108d281846107cc565b905092915050565b60006020820190506108ef600083018461082a565b92915050565b6000602082019050818103600083015261090e81610839565b9050919050565b6000602082019050818103600083015261092e8161085c565b9050919050565b600060208201905061094a600083018461087f565b92915050565b6000602082019050610965600083018461088e565b92915050565b6000819050602082019050919050565b600081519050919050565b6000602082019050919050565b600082825260208201905092915050565b600082825260208201905092915050565b60006109c0826109d1565b9050919050565b6000819050919050565b600073ffffffffffffffffffffffffffffffffffffffff82169050919050565b6000819050919050565b600063ffffffff82169050919050565b600060ff82169050919050565b6000610a23826109f1565b91507fffffffffffffffffffffffffffffffffffffffffffffffffffffffffffffffff821415610a5657610a55610a61565b5b600182019050919050565b7f4e487b7100000000000000000000000000000000000000000000000000000000600052601160045260246000fd5b7f43616e6e6f74207769746864726177206d6f7265207468616e20302e3120657460008201527f6865720000000000000000000000000000000000000000000000000000000000602082015250565b7f4f6e6c79206f776e65722063616e2061636365737320746869732066756e637460008201527f696f6e0000000000000000000000000000000000000000000000000000000000602082015250565b610b37816109f1565b8114610b4257600080fd5b50565b610b4e81610a0b565b8114610b5957600080fd5b5056fea264697066735822122011e924e543da6484c808fa48b838a1a7647f4344dc56ac71d7dfe84d41c71fb664736f6c63430008040033",
  "immutableReferences": {},
  "source": "// SPDX-License-Identifier: MIT\npragma solidity >=0.4.22 <0.9.0;\n\nimport \"./Owned.sol\";\nimport \"./Logger.sol\";\nimport \"./IFaucet.sol\";\n\ncontract Faucet is Owned, Logger {\n    uint public numOfFunders;\n    mapping(address => bool) private funders;\n    mapping(uint => address) private lutFunders;\n\n    modifier limitWithdraw(uint withdrawAmount) {\n        require(\n            withdrawAmount <= 100000000000000000, \n            \"Cannot withdraw more than 0.1 ether\"\n        );\n        _;\n    }\n\n    receive() external payable {}\n\n    function emitLog() override public pure returns(bytes32) {\n        return \"Hello World\";\n    }\n\n    function test1() external onlyOwner{}\n\n    function test2() external onlyOwner{}\n\n    function addFunds() external payable {\n        address funder = msg.sender;\n\n        if (!funders[funder]) {\n            uint index = numOfFunders++;\n            funders[funder] = true; \n            lutFunders[index] = funder;\n        }\n    }\n\n    function withdraw(uint withdrawAmount) external limitWithdraw(withdrawAmount) {\n        payable(msg.sender).transfer(withdrawAmount);\n    }\n\n    function getAllFunders() external view returns (address[] memory) {\n        address[] memory _funders = new address[](numOfFunders);\n\n        for (uint i = 0; i < numOfFunders; i++) {\n            _funders[i] = lutFunders[i];\n        }\n\n        return _funders;\n    }\n\n    function getFunderAtIndex(uint8 index) external view returns(address) {\n        return lutFunders[index];\n    }\n\n    // const instance = await Faucet.deployed()\n    // instance.addFunds({value:\"2\", from: accounts[1]})\n}",
  "sourcePath": "/Users/leonardo/Documents/projects/others/faucet-solidity/contracts/FaucetContract.sol",
  "compiler": {
    "name": "solc",
    "version": "0.8.4+commit.c7e474f2.Emscripten.clang"
  },
  "schemaVersion": "3.4.7",
  "updatedAt": "2022-05-28T14:21:33.761Z",
  "networkType": "ethereum",
  "devdoc": {
    "kind": "dev",
    "methods": {},
    "version": 1
  },
  "userdoc": {
    "kind": "user",
    "methods": {},
    "version": 1
  }
}