{
  "contractName": "Storage",
  "abi": [
    {
      "inputs": [],
      "name": "a",
      "outputs": [
        {
          "internalType": "uint8",
          "name": "",
          "type": "uint8"
        }
      ],
      "stateMutability": "view",
      "type": "function",
      "constant": true
    },
    {
      "inputs": [],
      "name": "b",
      "outputs": [
        {
          "internalType": "uint16",
          "name": "",
          "type": "uint16"
        }
      ],
      "stateMutability": "view",
      "type": "function",
      "constant": true
    },
    {
      "inputs": [],
      "name": "c",
      "outputs": [
        {
          "internalType": "address",
          "name": "",
          "type": "address"
        }
      ],
      "stateMutability": "view",
      "type": "function",
      "constant": true
    },
    {
      "inputs": [],
      "name": "d",
      "outputs": [
        {
          "internalType": "bool",
          "name": "",
          "type": "bool"
        }
      ],
      "stateMutability": "view",
      "type": "function",
      "constant": true
    },
    {
      "inputs": [],
      "name": "e",
      "outputs": [
        {
          "internalType": "uint64",
          "name": "",
          "type": "uint64"
        }
      ],
      "stateMutability": "view",
      "type": "function",
      "constant": true
    },
    {
      "inputs": [],
      "name": "f",
      "outputs": [
        {
          "internalType": "uint256",
          "name": "",
          "type": "uint256"
        }
      ],
      "stateMutability": "view",
      "type": "function",
      "constant": true
    },
    {
      "inputs": [],
      "name": "g",
      "outputs": [
        {
          "internalType": "uint8",
          "name": "",
          "type": "uint8"
        }
      ],
      "stateMutability": "view",
      "type": "function",
      "constant": true
    },
    {
      "inputs": [],
      "name": "h",
      "outputs": [
        {
          "internalType": "uint256",
          "name": "",
          "type": "uint256"
        }
      ],
      "stateMutability": "view",
      "type": "function",
      "constant": true
    }
  ],
  "bytecode": "0x608060405260076000806101000a81548160ff021916908360ff160217905550600a600060016101000a81548161ffff021916908361ffff16021790555073fbe66c0c0944900d030b7b787b3054439acda553600060036101000a81548173ffffffffffffffffffffffffffffffffffffffff021916908373ffffffffffffffffffffffffffffffffffffffff1602179055506001600060176101000a81548160ff0219169083151502179055506010600060186101000a81548167ffffffffffffffff021916908367ffffffffffffffff16021790555060c86001556028600260006101000a81548160ff021916908360ff16021790555061031560035534801561010a57600080fd5b506103bd8061011a6000396000f3fe608060405234801561001057600080fd5b50600436106100885760003560e01c8063b8c9d3651161005b578063b8c9d36514610105578063c3da42b814610123578063e2179b8e14610141578063ffae15ba1461015f57610088565b80630dbe671f1461008d57806326121ff0146100ab5780634df7e3d0146100c95780638a054ac2146100e7575b600080fd5b61009561017d565b6040516100a291906102f5565b60405180910390f35b6100b361018e565b6040516100c091906102bf565b60405180910390f35b6100d1610194565b6040516100de91906102a4565b60405180910390f35b6100ef6101a8565b6040516100fc9190610289565b60405180910390f35b61010d6101bb565b60405161011a91906102bf565b60405180910390f35b61012b6101c1565b604051610138919061026e565b60405180910390f35b6101496101e7565b60405161015691906102f5565b60405180910390f35b6101676101fa565b60405161017491906102da565b60405180910390f35b60008054906101000a900460ff1681565b60015481565b600060019054906101000a900461ffff1681565b600060179054906101000a900460ff1681565b60035481565b600060039054906101000a900473ffffffffffffffffffffffffffffffffffffffff1681565b600260009054906101000a900460ff1681565b600060189054906101000a900467ffffffffffffffff1681565b61021d81610310565b82525050565b61022c81610322565b82525050565b61023b8161032e565b82525050565b61024a8161035c565b82525050565b61025981610366565b82525050565b6102688161037a565b82525050565b60006020820190506102836000830184610214565b92915050565b600060208201905061029e6000830184610223565b92915050565b60006020820190506102b96000830184610232565b92915050565b60006020820190506102d46000830184610241565b92915050565b60006020820190506102ef6000830184610250565b92915050565b600060208201905061030a600083018461025f565b92915050565b600061031b8261033c565b9050919050565b60008115159050919050565b600061ffff82169050919050565b600073ffffffffffffffffffffffffffffffffffffffff82169050919050565b6000819050919050565b600067ffffffffffffffff82169050919050565b600060ff8216905091905056fea2646970667358221220f84e73af2af57a9c3f5310ba987bf9d08370d483628b73a9cbe779c1501c967964736f6c63430008040033",
  "immutableReferences": {},
  "source": "// SPDX-License-Identifier: MIT\npragma solidity >=0.4.22 <0.9.0;\n\ncontract Storage {\n    uint8 public a = 7;\n    uint16 public b = 10;\n    address public c = 0xFbE66C0c0944900d030B7B787b3054439aCda553;\n    bool public d = true;\n    uint64 public e = 16;\n\n    uint256 public f = 200;\n    uint8 public g = 40;\n    uint256 public h = 789;\n}",
  "sourcePath": "/Users/leonardo/Documents/projects/others/faucet-solidity/contracts/Storage.sol",
  "compiler": {
    "name": "solc",
    "version": "0.8.4+commit.c7e474f2.Emscripten.clang"
  },
  "schemaVersion": "3.4.7",
  "updatedAt": "2022-05-28T14:21:34.582Z",
  "networkType": "ethereum",
  "devdoc": {
    "kind": "dev",
    "methods": {},
    "version": 1
  },
  "userdoc": {
    "kind": "user",
    "methods": {},
    "version": 1
  }
}